:100000000C9462000C948A000C948A000C948A0070
:100010000C948A000C948A000C948A000C948A0038
:100020000C948A000C948A000C948A000C948A0028
:100030000C948A000C948A000C948A000C948A0018
:100040000C945C030C948A000C942A030C94040313
:100050000C948A000C948A000C948A000C948A00F8
:100060000C948A000C948A000000000023002600F3
:10007000290000000008000201000003040700003E
:1000800000000000000000000000250028002B00F8
:1000900000000000240027002A00040404040404D3
:1000A0000404020202020202030303030303010227
:1000B00004081020408001020408102001020408F6
:1000C0001020330511241FBECFEFD8E0DEBFCDBF17
:1000D00022E0A2EDB1E001C01D92AC37B207E1F71A
:1000E00011E0A0E0B1E0E4E3FFE002C005900D9272
:1000F000A23DB107D9F710E0C2E6D0E004C02197D5
:10010000FE010E949705C136D107C9F70E94A603D8
:100110000C9498070C94000090E0FC01E255FF4F0E
:10012000249186569F4FFC018491882399F090E09A
:10013000880F991FFC01E057FF4FA591B491FC0176
:10014000EA57FF4F859194918FB7F894EC91E22B89
:10015000EC938FBF0895AF92BF92CF92DF92EF9250
:10016000FF920F931F93CF93DF936C017B018B0161
:10017000040F151FEB015E01AE18BF08C017D107B1
:1001800059F06991D601ED91FC910190F081E02D3B
:10019000C6010995892B79F7C501DF91CF911F9190
:1001A0000F91FF90EF90DF90CF90BF90AF900895A8
:1001B000FC01538D448D252F30E0842F90E0821B6D
:1001C000930B541710F0CF96089501970895FC01F2
:1001D000918D828D981761F0A28DAE0FBF2FB11D4A
:1001E0005D968C91928D9F5F9F73928F90E00895A2
:1001F0008FEF9FEF08952FB7F8948091D7019091DA
:10020000D801A091D901B091DA012FBF8093E30109
:100210009093E401A093E501B093E6018BED91E0AA
:100220000E94E70097FF26C02FB7F8948091D7016E
:100230009091D801A091D901B091DA012FBF4091DE
:10024000E3015091E4016091E5017091E601841BA6
:10025000950BA60BB70B4091DF015091E001609127
:10026000E1017091E20184179507A607B707B0F284
:100270008FEF9FEF0895FC01918D828D981731F0DB
:10028000828DE80FF11D858D90E008958FEF9FEF2F
:100290000895FC01918D228D892F90E0805C9F4F05
:1002A000821B91098F73992708958BED91E00E942D
:1002B000490121E0892B09F420E0822F089580E094
:1002C00090E0892B29F00E94550181110C940000C7
:1002D0000895FC01A48DA80FB92FB11DA35ABF4FDB
:1002E0002C91848D90E001968F739927848FA68935
:1002F000B7892C93A089B1898C91837080648C9389
:10030000938D848D981306C00288F389E02D808137
:100310008F7D80830895EF92FF920F931F93CF9369
:10032000DF93EC0181E0888F9B8D8C8D98131AC030
:10033000E889F989808185FF15C09FB7F894EE8917
:10034000FF896083E889F989808183708064808374
:100350009FBF81E090E0DF91CF911F910F91FF90BF
:10036000EF900895F62E0B8D10E00F5F1F4F0F7367
:100370001127E02E8C8D8E110CC00FB607FCFACF22
:10038000E889F989808185FFF5CFCE010E94690156
:10039000F1CFEB8DEC0FFD2FF11DE35AFF4FF082F3
:1003A0009FB7F8940B8FEA89FB8980818062CFCF59
:1003B000CF93DF93EC01888D8823B9F0AA89BB899C
:1003C000E889F9898C9185FD03C0808186FD0DC087
:1003D0000FB607FCF7CF8C9185FFF2CF808185FFA8
:1003E000EDCFCE010E946901E9CFDF91CF91089551
:1003F000833081F028F4813099F08230A9F008959B
:100400008730A9F08830C9F08430B1F48091800041
:100410008F7D03C0809180008F7780938000089546
:1004200084B58F7784BD089584B58F7DFBCF80918F
:10043000B0008F778093B00008958091B0008F7DD9
:10044000F9CF1F93CF93DF93282F30E0F901EE58B7
:10045000FF4F8491F901E255FF4FD491F901E6561F
:10046000FF4FC491CC23A9F0162F81110E94F801EF
:10047000EC2FF0E0EE0FFF1FEA57FF4FA591B4916C
:100480008FB7F894EC91111108C0D095DE23DC935E
:100490008FBFDF91CF911F910895DE2BF8CF3FB72B
:1004A000F8948091D3019091D401A091D501B0919D
:1004B000D60126B5A89B05C02F3F19F00196A11DB6
:1004C000B11D3FBFBA2FA92F982F8827BC01CD019E
:1004D000620F711D811D911D42E0660F771F881FFD
:1004E000991F4A95D1F708958F929F92AF92BF922C
:1004F000CF92DF92EF92FF924B015C010E944F027C
:100500006B017C010E944F026C197D098E099F09C5
:10051000683E734081059105A8F321E0821A910895
:10052000A108B10888EEC80E83E0D81EE11CF11CBA
:1005300081149104A104B10429F7FF90EF90DF909A
:10054000CF90BF90AF909F908F9008950F931F937F
:10055000CF93DF938C01CBE0D0E061E0802F0C17CC
:100560001D0711F060E08C2F0E9421022196CE30F1
:10057000D10599F7DF91CF911F910F910895CF93F6
:10058000DF93FC0101900020E9F73197AF01481B90
:10059000590BBC018BED91E00E94AB00EC0142E0F5
:1005A00050E068E171E08BED91E00E94AB008C0FB0
:1005B0009D1FDF91CF9108950F931F93CF93DF93EA
:1005C000EC0188819981009759F02A813B81261797
:1005D000370730F081E0DF91CF911F910F9108959F
:1005E0008B016F5F7F4F0E94C206009759F099837D
:1005F00088831B830A832C813D81232B59F7FC01BF
:100600001082E8CF80E0E7CF1F920F920FB60F92D3
:1006100011242F933F934F935F936F937F938F9307
:100620009F93AF93BF93EF93FF938BED91E00E9465
:100630006901FF91EF91BF91AF919F918F917F9150
:100640006F915F914F913F912F910F900FBE0F903F
:100650001F9018951F920F920FB60F9211242F938F
:100660008F939F93EF93FF93E091EB01F091EC0157
:100670008081E091F101F091F20182FD1BC0908137
:100680008091F4018F5F8F732091F501821741F003
:10069000E091F401F0E0E552FE4F958F8093F40174
:1006A000FF91EF919F918F912F910F900FBE0F901F
:1006B0001F9018958081F4CF1F920F920FB60F9262
:1006C00011242F933F938F939F93AF93BF93809168
:1006D000D7019091D801A091D901B091DA01309160
:1006E000D20123E0230F2D3758F50196A11DB11D2E
:1006F0002093D2018093D7019093D801A093D90180
:10070000B093DA018091D3019091D401A091D501E9
:10071000B091D6010196A11DB11D8093D301909394
:10072000D401A093D501B093D601BF91AF919F9111
:100730008F913F912F910F900FBE0F901F901895A2
:1007400026E8230F0296A11DB11DD2CFCF93DF93D0
:10075000CDB7DEB728970FB6F894DEBF0FBECDBF7A
:10076000789484B5826084BD84B5816084BD85B58C
:10077000826085BD85B5816085BD80916E00816098
:1007800080936E001092810080918100826080933E
:100790008100809181008160809381008091800040
:1007A0008160809380008091B10084608093B1006B
:1007B0008091B00081608093B00080917A00846065
:1007C00080937A0080917A00826080937A00809191
:1007D0007A00816080937A0080917A0080688093AB
:1007E0007A001092C10087E00E948C008BE00E948A
:1007F0008C008CE00E948C008DE00E948C00E091C7
:10080000EB01F091EC0182E08083E091E701F0914F
:10081000E8011082E091E901F091EA018FEC808318
:100820001092F301E091EF01F091F00186E08083F6
:10083000E091ED01F091EE01808180618083E09193
:10084000ED01F091EE01808188608083E091ED01FF
:10085000F091EE01808180688083E091ED01F0915C
:10086000EE0180818F7D808309E710E095EBE92E12
:1008700090E0F92E21EAC22E20E0D22E30E0A32E05
:1008800030E0B32EF8018491F7019490F601849042
:10089000882009F4DCC081110E94F801E82DF0E005
:1008A000EE0FFF1FE859FF4FA591B4918C9198224C
:1008B00009F4CDC08BED91E00E944901892B09F428
:1008C000C6C08AE191E00E94BF028BE191E00E94E4
:1008D000BF021A8219821C821B821E821D8270E056
:1008E00060E0CE0101960E94DC0229813A818111EB
:1008F0002CC02115310519F0C9010E9439061A8250
:1009000019821E821D821C821B820E94FB0097FDA1
:1009100024C08F8318868D809E80FFEF8F1A9F0AD8
:10092000B401CE0101960E94DC02882371F3298173
:100930003A818D819E81BE01695F7F4F820F931F37
:100940000E9491079E828D82E0CF1E821D826AE105
:1009500071E0C9010E949107D8CF8AE391E00E941B
:10096000BF028D819E81892B09F44FC065E471E03F
:1009700089819A810E948807892B09F046C08AE103
:1009800091E00E94BF028BE191E00E94BF028EE4E1
:1009900091E00E94BF028DE090E00E94A60268EE06
:1009A00073E080E090E00E9474028CE090E00E948E
:1009B000A60281E691E00E94BF0268E572E080E055
:1009C00090E00E9474028BE090E00E94A60288E70B
:1009D00091E00E94BF0268EE73E080E090E00E9428
:1009E00074028BE191E00E94BF028AE191E00E94D3
:1009F000BF028CE891E00E94BF028CE991E00E9466
:100A0000BF028AE191E00E94BF028D819E81892B05
:100A1000C1F064EB71E089819A810E948807892B7B
:100A200081F48FE090E00E94A6028AE191E00E94AA
:100A3000BF028BEB91E00E94BF028AE191E00E942D
:100A4000BF0289819A81009711F00E943906A11492
:100A5000B10409F417CF0E945501882309F412CF7D
:100A60000E9400000FCFEBEDF1E01382128288EEBE
:100A700093E0A0E0B0E084839583A683B7838AE007
:100A800091E09183808385EC90E09587848784EC66
:100A900090E09787868780EC90E0918B808B81EC4B
:100AA00090E0938B828B82EC90E0958B848B86EC2C
:100AB00090E0978B868B118E128E138E148E089574
:100AC0002F923F924F925F926F927F928F929F925E
:100AD000AF92BF92CF92DF92EF92FF920F931F934C
:100AE000CF93DF93CDB7DEB7CA1BDB0B0FB6F894FD
:100AF000DEBF0FBECDBF09942A88398848885F843D
:100B00006E847D848C849B84AA84B984C884DF80AD
:100B1000EE80FD800C811B81AA81B981CE0FD11D91
:100B20000FB6F894DEBF0FBECDBFED010895EE0FF6
:100B3000FF1F0590F491E02D09940F931F93CF931D
:100B4000DF938230910510F482E090E0E0917A0228
:100B5000F0917B0230E020E0B0E0A0E0309799F423
:100B60002115310509F44AC0281B390B2430310501
:100B7000D8F58A819B816115710589F1FB01938309
:100B80008283FE0111C04081518102811381481787
:100B90005907E0F04817590799F4109761F0129639
:100BA0000C93129713961C933296CF01DF91CF913D
:100BB0001F910F91089500937A0210937B02F4CF56
:100BC0002115310551F04217530738F0A901DB0117
:100BD0009A01BD01DF01F801C1CFEF01F9CF909378
:100BE0007B0280937A02CDCFFE01E20FF31F819347
:100BF00091932250310939832883D7CF20917802ED
:100C000030917902232B41F42091020130910301AC
:100C100030937902209378022091000130910101F4
:100C20002115310541F42DB73EB740910401509193
:100C30000501241B350BE0917802F0917902E2174F
:100C4000F307A0F42E1B3F0B2817390778F0AC01EF
:100C50004E5F5F4F2417350748F04E0F5F1F5093CC
:100C6000790240937802819391939FCFF0E0E0E086
:100C70009CCFCF93DF930097E9F0FC01329713826A
:100C80001282A0917A02B0917B02ED0130E020E067
:100C90001097A1F420813181820F931F2091780257
:100CA000309179022817390709F061C0F093790271
:100CB000E0937802DF91CF910895EA01CE17DF0724
:100CC000E8F54A815B819E0141155105B1F7E901C3
:100CD000FB83EA8349915991C40FD51FEC17FD0797
:100CE00061F4808191810296840F951FE9019983B7
:100CF0008883828193819B838A83F0E0E0E012966F
:100D00008D919C9113970097B9F52D913C91119776
:100D1000CD010296820F931F2091780230917902C3
:100D20002817390739F6309751F510927B02109247
:100D30007A02B0937902A0937802BCCFD383C283A6
:100D400040815181840F951FC817D90761F44E5F08
:100D50005F4F88819981480F591F518340838A8151
:100D60009B81938382832115310509F0B0CFF093E5
:100D70007B02E0937A029ECFFD01DC01C0CF13829B
:100D80001282D7CFB0E0A0E0E8ECF6E00C94620568
:100D90008C01009751F4CB010E949D058C01C80184
:100DA000CDB7DEB7E0E10C947E05FC01E60FF71F3E
:100DB0009C0122503109E217F30708F49DC0D901C4
:100DC000CD91DC911197C617D70798F0C530D105A2
:100DD00030F3CE0104978617970708F3C61BD70B8D
:100DE0002297C193D1936D937C93CF010E943906D2
:100DF000D6CF5B01AC1ABD0A4C018C0E9D1EA09192
:100E00007A02B0917B02512C412CF12CE12C1097ED
:100E100031F580917802909179028815990509F051
:100E20005CC04616570608F058C0809100019091AA
:100E30000101009741F48DB79EB740910401509194
:100E40000501841B950BE817F90708F055C0F093CE
:100E50007902E0937802F90171836083A0CF8D91CC
:100E60009C91119712966C90129713967C90139701
:100E7000A815B90559F56C0142E0C40ED11CCA147D
:100E8000DB0420F1AC014A195B09DA0112961597CF
:100E900080F06282738251834083D9016D937C9389
:100EA000E114F10471F0D7011396FC93EE931297BD
:100EB00076CF22968C0F9D1FF90191838083F301D9
:100EC000EFCFF0937B02E0937A0269CF4816590680
:100ED00008F42C017D01D3019ACFCB010E949D051E
:100EE0007C01009749F0AE01B8010E947F07C8015C
:100EF0000E943906870153CF10E000E050CFFB017C
:100F0000DC0102C001900D9241505040D8F7089585
:100F1000FB01DC018D91019080190110D9F3990B2F
:100F20000895FB01DC0101900D920020E1F7089586
:040F3000F894FFCF63
:100F340000007C028000000000008B01AB00D800A0
:100F4400D8014901E7003B010D0A002D2D2D2D2D5F
:100F54002D2D2D2D2D2D2D2D2D2D2D2D2D2D2D2DBD
:100F64002D2D2D2D2D2D2D2D2D0070726573696F56
:100F74006E61646F00656E63656E646572006C65B6
:100F84006420726F6A6F20656E63656E6469646F56
:100F9400006C656420616D6172696C6C6F20656EB4
:100FA40063656E6469646F006C6564207665726461
:100FB4006520656E63656E6469646F006369636C64
:100FC4006F207465726D696E61646F00746F646F15
:100FD4007320667565726F6E20656E63656E6469F5
:100FE400646F730061706167617200746F646F7322
:100FF40020667565726F6E206170616761646F73DE
:021004000000EA
:00000001FF
